:020000040800F2
:10000000808B002081020008C94500083B3F0008A2
:10001000C5450008B50A0008BD53000800000000EF
:10002000000000000000000000000000C101000806
:10003000810E0008000000001D020008D5470008DE
:100040009B0200089B0200089B0200089B0200081C
:100050009B0200089B0200089B0200089B0200080C
:100060009B0200089B0200089B0200089B020008FC
:10007000810B00089B020008910B00089B020008FE
:10008000A10B0008B10B00089B0200089B020008AE
:10009000B90A00089B0200089B020008291000080A
:1000A0009B0200089B0200089B0200089B020008BC
:1000B000294900089B0200089B0200089B020008D7
:1000C0009B0200089B0200089B0200089B0200089C
:1000D0009B0200088D5300089D530008AD53000893
:1000E0009B0200089B0200089B0200089B0200087C
:1000F0009B0200089B0200089B0200089B0200086C
:100100009B0200089B0200089B0200089B0200085B
:100110009B0200089B020008394900084949000871
:100120009B0200089B020008C10B00089B0200080C
:100130009B0200089B0200089B0200089B0200082B
:10014000C90A00089B0200089B0200089B020008E5
:100150009B0200089B0200089B0200089B0200080B
:100160009B0200089B0200089B0200089B020008FB
:100170009B0200089B0200089B0200080000000090
:100180009B0200089B020008E94D0008F94D000899
:100190009B0200089B0200089B0200089B020008CB
:1001A0009B0200089B0200089B020008DFF80CD0AD
:1001B00000F0D8FB0048004799610008808B0020C0
:1001C0002C4B19680868B0E8F04F80F30988BFF33A
:1001D0006F8F4FF0000080F311887047000000001F
:1001E00008480068006880F308884FF0000080F33A
:1001F000148862B661B6BFF34F8FBFF36F8F00DF15
:1002000000BF00BF08ED00E0DFF80C00016841F41A
:1002100070010160704700BF88ED00E0EFF30980D6
:10022000BFF36F8F134B1A681EF0100F08BF20ED3D
:10023000108A20E9F04F106009B44FF0500080F3AD
:100240001188BFF34F8FBFF36F8F07F0F3F94FF0B3
:10025000000080F3118809BC19680868B0E8F04F05
:100260001EF0100F08BFB0EC108A80F30988BFF3AE
:100270006F8F704718000020EFF305807047000073
:100280000648804706480047FEE7FEE7FEE7FEE730
:10029000FEE7FEE7FEE7FEE7FEE7FEE7C5480008EB
:1002A000AD0100082DE9F05F0546002092469B460F
:1002B00088460646814640241BE02846414647467C
:1002C000224600F047FA53465A46C01A914110D3CD
:1002D00011461846224600F02EFA2D1A67EB010847
:1002E0004F4622460120002100F025FA17EB0009B5
:1002F0004E41201EA4F10104DFDC484631462A4667
:100300004346BDE8F09F40EA01039B0703D009E0A4
:1003100008C9121F08C0042AFAD203E011F8013BF1
:1003200000F8013B521EF9D27047D2B201E000F84A
:10033000012B491EFBD270470022F6E710B5134689
:100340000A4604461946FFF7F0FF204610BD2DE986
:10035000FE4F804681EA0300C00F0C46009021F05A
:10036000004123F00045B8EB0200A94105D2404608
:10037000214690461C460B46024623F0004010439F
:1003800047D0270DC7F30A00C3F30A510290401A61
:10039000019040286BDAC3F3130040F4801B0098EF
:1003A000924620B10023D2EB030A63EB0B0B0198BA
:1003B0005946C0F14002504600F0BDF906460D46D0
:1003C00050465946019A00F0D5F910EB08006141FA
:1003D000002487EA115284EAE7731A4340D0009A56
:1003E00062B3019A012A4FEA075215DC001B61EB48
:1003F00002014FF0004202EA0752CDE90042001C20
:1004000041F5801132462B4600F00CFA03B0BDE8EE
:10041000F08F40462146F9E7001B61EB0201001C0A
:1004200041F5801300185B412018A2F5001747EB37
:10043000030140EAD570B6196D4111E06D084FEA2D
:10044000360645EAC0754FEA0752001B61EB020110
:10045000001C41F5801149084FEA30000019514154
:1004600032462B4603B0BDE8F04F00F0CCB90098FF
:10047000012240000023D0EB020263EBE0730098FE
:1004800021464FEAE074B8EB000061EB0401E9E7B4
:1004900083F000435BE781F0004158E72DE9FE4F10
:1004A00081EA030404F0004421F0004100944FF07D
:1004B000000B23F0004350EA01045ED052EA03042B
:1004C0005BD0C3F30A54C1F30A552C44A4F2F334AD
:1004D0000194A0FB0254C1F3130141F48011C3F352
:1004E000130343F4801301FB024400FB034E840A10
:1004F000970A44EA815447EA8357A4FB07680295A8
:100500008D0A05FB07854FEA932C04FB0C54270545
:10051000029D4FEA065847EA1637B5EB08056EEB21
:10052000070C870E920E47EA811742EA8312A7FB57
:100530000201B6EB0B0164EB00042B0D43EA0C3314
:100540005E1844EB1C50DA465146E7FB0201C5F346
:1005500013044FEA0B3343EA14534FEA0432019C6D
:1005600043EA0603A4F10C040294009CCDE900B414
:1005700000F058F903B0BDE8F08F00200146F9E71C
:100580002DE9F04D81EA030404F0004B21F0004511
:1005900014464FF0000A23F0004150EA050220D033
:1005A00054EA01021DD0C5F30A570246C5F31303EE
:1005B000C1F31300C1F30A5640F4801543F48013CD
:1005C000A7EB0608101BD64608F2FD3873EB0500B2
:1005D00002D308F1010801E092185B41B8F1000F65
:1005E00003DA00200146BDE8F08D00204FF48011B1
:1005F000064684460EE0171B73EB050705D3121B56
:1006000063EB050306434CEA010C49084FEA30004E
:1006100092185B4150EA0107EDD152EA030012D073
:1006200082EA040083EA0501084305D0101BAB41B0
:1006300006D20122002306E000224FF0004302E030
:100640006FF0010253101AEB06004CEB085110EB4F
:100650000A0041EB0B01BDE8F04D00F0D4B80EB537
:10066000C10F80EAE0700844CA07002140F233431A
:100670008DE80E000A460B4600F0D4F803B000BD2A
:100680000EB540F2334102910021CDE900110A4636
:100690000B4600F0C7F803B000BD70B5C1F30A52B5
:1006A00001F000450024C1F3130140F2FF3341F48F
:1006B00080119A4201DA002070BD40F233439A4221
:1006C000A2F2334203DC524200F044F800E09040D2
:1006D0002C43F1D0404270BD00F0004230F00040A9
:1006E0000AD0C10D01F56071C0F3160042EA015154
:1006F000C20840071143704700200146704701F0CF
:10070000004330B421F0004150EA010206D00A0D46
:10071000A2F56072C1F31301002A02DC30BC002094
:100720007047440F44EAC104C100E01830BC00EB3C
:10073000C25000F031B8202A04DB203A00FA02F15E
:10074000002070479140C2F1200320FA03F31943BF
:1007500090407047202A04DB203A21FA02F0002161
:10076000704721FA02F3D040C2F1200291400843C1
:1007700019467047202A06DBCB17203A41FA02F0CF
:1007800043EAE07306E041FA02F3D040C2F12002EE
:1007900091400843194670470029A8BF7047401C84
:1007A000490008BF20F00100704710B4B0FA80FC87
:1007B00000FA0CF050EA010404BF10BC704749B1C4
:1007C000CCF1200421FA04F411FA0CF118BF012134
:1007D00021430843A3EB0C01CB1D4FEA00614FEA14
:1007E000102042BF002010BC704700EBC3501044E3
:1007F0000029A4BF10BC7047401C490008BF20F06E
:10080000010010BC704710B5141E73F1000408DA23
:10081000401C41F1000192185B411A4301D120F0C4
:10082000010010BD2DE9F04D92469B4611B1B1FA81
:1008300081F202E0B0FA80F220329046FFF77BFFAF
:1008400004460F4640EA0A0041EA0B0153465A4665
:10085000084313D0114653EA010019D0C8F14002F1
:100860005046FFF777FF05460E465046594642462A
:10087000FFF761FF084305D0012004E02046394618
:10088000BDE8F08D0020054346EAE0762C4337436F
:100890000A986305E40AA0EB08000022FD0A44EA76
:1008A00047540A3002D500200146E9E70105101936
:1008B0006941DDE9084500196941BDE8F04DA2E74D
:1008C0002DE9F04D00231A461B1A8A4103DB002054
:1008D0000146BDE8F08DC1F30A52C1F3130141F4A2
:1008E00080154FF0000BD10702D100186D41521E48
:1008F0000027044640F2FF11384601EB620A3E46EB
:100900008046024600204FF48011FFF723FFC219F2
:100910007141BB1846EB0100B4EB030C75EB000C06
:1009200004D3E41A65EB000517460E46241908F1B6
:1009300001006D4180463428E3DDF91946EB0600DD
:10094000091BA84103D24FF0FF32134601E00022F9
:1009500013461BEB070046EB0A51BDE8F04DFFF7CD
:1009600052BF0000064C074D06E0E06840F001036E
:1009700094E8070098471034AC42F6D3FFF71AFC0E
:10098000C4840008E484000810B504464049206887
:1009900088420BD1102005F03FFC3E4948600846D4
:1009A000406808B9012010BD0020FCE73A492068E2
:1009B00088420BD1102005F02FFC3649886008468C
:1009C000806808B90120EEE70020ECE73349206891
:1009D00088420BD1102005F01FFC2E49C860084644
:1009E000C06808B90120DEE70020DCE72C49206858
:1009F00088420BD1102005F00FFC264908610846FB
:100A0000006908B90120CEE70020CCE7254920681D
:100A100088420BD1102005F0FFFB1E4948610846B3
:100A2000406908B90120BEE70020BCE71E492068E4
:100A300088420BD1102005F0EFFB1649886108466B
:100A4000806908B90120AEE70020ACE717492068AB
:100A500088420BD1102005F0DFFB0E49C861084623
:100A6000C06908B901209EE700209CE71049206872
:100A700088420BD1102005F0CFFB064908620846DA
:100A8000006A08B901208EE700208CE701208AE780
:100A900000100140747000200044004000480040F5
:100AA000004C00400050004000140140007800401D
:100AB000007C004000BFFEE710B5024800F06FFD6B
:100AC00010BD00002001002010B5024800F067FDB5
:100AD00010BD00004801002002461E2901DD1E2035
:100AE00000E008460146002901DA002000E008463F
:100AF000014600EE101AB8EEC00ADFED050A80EEDE
:100B0000201ABCEEC10A034880ED040A70470000B9
:100B1000388EE33E0872002070B504460D460CB9CD
:100B2000012070BD002020806080A080E0802072C5
:100B30006072A0810021E1812182A174E17421759C
:100B40006175E08221832062152084F824002563EA
:100B500094F824100122284604F032FC18B1002039
:100B6000E0610120DDE70121E16204F1280003F0EA
:100B7000A7FDE06940F00100E0610020D1E700003E
:100B800010B5024801F03AF810BD000070050020D1
:100B900010B5024801F032F810BD0000F00300204B
:100BA00010B5024801F02AF810BD00001005002021
:100BB00010B5024801F022F810BD000050040020DA
:100BC00010B5024801F01AF810BD0000B004002072
:100BD0000146087810381823B0FBF3F20848805C0F
:100BE000C865032A05D908686FF30900001D8865E8
:100BF00003E008686FF309008865886D704700009E
:100C00003C830008014600208A6A8B69CBB932B167
:100C1000012A0DD0022A03D0032A10D10EE000BF12
:100C2000CB6A03F08073B3F1807F00D1012007E02D
:100C3000CB6AB3F1C07F00D1012001E000E000BF2A
:100C400034E08B69B3F5005F1AD132B1012A07D0C5
:100C5000022A03D0032A11D10AE000BF01200EE0CE
:100C6000CB6A03F08073B3F1807F00D1012006E0EE
:100C7000CB6AB3F1C07F00D1012000E000BF15E0D6
:100C800032B1012A05D0022A04D0032A0CD103E094
:100C900000BF00BF012008E0CB6A03F08073B3F10E
:100CA000807F00D1012000E000BF00BF704730B559
:100CB0000468246824F4802405682C600468636058
:100CC0008468402C04D10468A2600468E16003E0F9
:100CD0000468A1600468E26030BD0246002A01DABF
:100CE000504200E010464042884207DA002A01DA0A
:100CF000504200E01046884200DD0021084670475F
:100D000010B504465C49206B04F0B0FB00287DD090
:100D1000594880785849C97840EA0120C0F30A0050
:100D200020802088A0F5806000B22080B4F90010F7
:100D30001420FFF7D2FF20804F48C078C0104E49E2
:100D4000097940EA4110C0F30A0060806088A0F58C
:100D5000806000B26080B4F902101420FFF7BDFF7C
:100D600060804548007980114349497940EA810013
:100D70004149897940EA8120C0F30A00A080A08817
:100D8000A0F5806000B2A080B4F904101420FFF731
:100D9000A4FFA0803848807940103749C97940EADB
:100DA000C110C0F30A00E080E088A0F5806000B2C6
:100DB000E080B4F906101420FFF78FFFE0802E4882
:100DC000C0790011800820722B48C079C0F301104F
:100DD00060722948007A2849497A40EA012000B225
:100DE000A0812548807A2449C97A40EA012001B2CD
:100DF000E1812148007B40EA002001B221821E48A7
:100E0000817BA174C17BE174007C00E020E01A4981
:100E1000497C40EA0120E0821748807C1649C97C61
:100E200040EA0120C0F30A0060816089A0F580607B
:100E300000B2608104F1280000F0FCF8E06940F0A5
:100E40000400E061342221460C48FFF75CFA11E00F
:100E500000BFA06A48B9002020806080A080E080A8
:100E6000E06920F00400E06104E0342203492046F8
:100E7000FFF749FA10BD000098700020B070002004
:100E80007047014609B1C86908B901207047086870
:100E900018B1C86900880A681080486818B1C86924
:100EA00040884A681080886818B1C86980888A6854
:100EB0001080C86818B1C869C088CA6810800869FD
:100EC00018B1C869007A0A691070486918B1C86910
:100ED000407A4A691070886918B1C86940898A697E
:100EE00010800020D2E7000000211D4A11805180AF
:100EF0001C49C86100211B4A116051601849891CB6
:100F00009160891ED1600021116151619161144A83
:100F10005160002212498A60CA600A613C224A611B
:100F200000228A619FED100A104981ED000A9FEDB1
:100F30000E0A81ED010A9FED0E0A81ED020A9FED76
:100F40000C0A81ED030A9FED0B0A81ED040A91ED75
:100F5000000A81ED050A0121044A1176704700005C
:100F600008720020607500200000344244750020A3
:100F70000000C8420000000010B52DED048B23488E
:100F8000FFF77FFF2249B1F90000FFF768FB41EC52
:100F9000190B9FED200B53EC102BFFF77FFA41EC60
:100FA000180BFFF77AFB04B21949B1F90200214688
:100FB00003F008FF012420E015481C3000EBC403B7
:100FC000164806CB00F07CF8144890ED000ABCEE01
:100FD000C00A10EE100A00EB8000400010490860C3
:100FE0000E4890ED010ABCEEC00A10EE100A00EBAC
:100FF000800040000B490860641C642CDCDB64202A
:1010000005F040F9BDEC048B10BD000060750020B8
:10101000087200200AD7A3703D0AA73F447500203C
:10102000E8000020EC00002010B5402000F0F0FFA8
:1010300010BD7047044A416852F82110491C024B08
:10104000426843F8221070475C710020014600207E
:1010500012E00B4A52F8202062B10A4A52F82020CE
:1010600002EB8202064B53F820301A600022054B37
:1010700043F82020421CD0B21E28EADB7047000053
:10108000E47000205C71002038B500240A48006834
:10109000009000220121684605F01EF9074908600A
:1010A000C8210648006805F02BF904460CB1012060
:1010B00038BD0020FCE700005C830008DC00002055
:1010C00017B52DED108B85B004461698404317993F
:1010D00001FB010000EE100AB8EE400AB0EE408AB3
:1010E0009FED970AF0EE408A9FED950AB0EE409A88
:1010F0009FED930AF0EE409A9FED910AB0EE40EA20
:10110000207E00F0010020B9012005B0BDEC108B5D
:101110001EBD94ED020A20EE000AD4ED030A94ED00
:10112000031A00EE810A30EE480AD4ED020AB0EE4E
:10113000001A60EE810A94ED031A20EE811AC0EEC7
:10114000010A9FED800A30EE600A84ED010A94EDF9
:10115000010A10EE101A0846FFF7BEFA41EC1B0B0D
:10116000B0EE4B0AF0EE6B0A04F0D2F9B0EE40AAF2
:10117000F0EE60AA51EC1A0BFFF7C1FA606018EEAE
:10118000100AFFF7A9FA41EC1C0BB0EE4C0AF0EE86
:101190006C0A04F0CDFDB0EE40BAF0EE60BA94ED0A
:1011A000020AF0EE000A20EE200A10EE101A08469D
:1011B000FFF792FA41EC1D0B53EC1B2BFFF76EF976
:1011C00041EC1A0BD4ED020A94ED021AB0EE480A73
:1011D00000EE810AD4ED030A94ED031A00EEC10A71
:1011E00010EE101A0846FFF777FA53EC1A2BCDE9E8
:1011F00000019DED000B51EC100BFFF7C1F9CDE99B
:1012000002019DED020B04F083F9B0EE40FAF0EE1E
:1012100060FA51EC1F0BFFF772FA206194ED040A9B
:1012200010EE101A0846FFF757FA41EC1B0B169800
:10123000FFF726FA41EC1F0B1798FFF721FA41EC54
:101240001D0BB0EE4F1AF0EE6F1AB0EE4D0AF0EE35
:101250006D0A04F075FCB0EE40CAF0EE60CA53ECC3
:101260001B2B51EC1C0BFFF713F941EC1A0BFFF78A
:1012700046FA09EE900A94ED040A10EE101A084698
:10128000FFF72AFA41EC1A0B1698FFF7F9F941EC2F
:101290001C0B1798FFF7F4F941EC1F0BB0EE4C1A3A
:1012A000F0EE6C1AB0EE4F0AF0EE6F0A04F048FC54
:1012B000B0EE40BAF0EE60BA53EC1A2B51EC1B0BB7
:1012C000FFF745F841EC1D0BFFF719FA0EEE100A77
:1012D00094ED050A39EEC00AF0EE408A94ED050A55
:1012E0003EEE400AB0EE409AF5EEC08AF1EE10FAFA
:1012F00002D2B1EE680A01E0B0EE680AB5EEC09A1B
:10130000F1EE10FA02D2F1EE490A01E0F0EE490ADC
:10131000B4EEE00AF1EE10FA02D2C4ED009A09E050
:1013200084ED00EA94ED010ADFED070A30EEC00A11
:1013300084ED010A94ED000A84ED050A0020E4E63C
:1013400000000000D00F49400000B4430146084AA5
:101350000868904202D1074840687047064A08680A
:10136000904202D103488068F7E70020F5E70000CB
:10137000006400406870002000680040004870472A
:10138000D471002001461D4A0868904202D11C48D1
:10139000406870471B4A0868904202D1184880682C
:1013A000F7E7194A0868904202D11548C068F0E78B
:1013B000164A0868904202D111480069E9E7144AC8
:1013C0000868904202D10E484069E2E7114A086875
:1013D000904202D10A488069DBE70F4A08689042D0
:1013E00002D10748C069D4E70C4A0868904202D18C
:1013F0000348006ACDE70020CBE700000010014061
:10140000747000200044004000480040004C004040
:10141000005000400014014000780040007C004073
:10142000704770B5044694F82050012D01D0022D6C
:101430007CD151B92068C06800F0030080B9606AAF
:1014400040F400106062012070BD2068006900F067
:10145000030028B9606A40F4001060620120F3E7DD
:10146000206800F5D87000EB0110006800F004005F
:101470009060906840B9206800F5D87000EB0110CA
:101480000068400D106007E0206800F5D87000EBA0
:1014900001100068C0085060206800F5D87000EBAB
:1014A0000110006800F002004008D060206800F5DC
:1014B000D87000EB0110406800F00F001061206848
:1014C00000F5D87000EB0110406800F47F40000A7E
:1014D0009061206800F5D87000EB01104068000CA6
:1014E0005061206800F5D87000EB0110806818701A
:1014F000206800F5D87000EB0110806800F47F4090
:10150000000A5870206800F5D87000EB0110806860
:1015100000F47F00000C9870206800F5D87000EB94
:1015200001108068000ED870206800E031E000F5FE
:10153000D87000EB0110C0681871206800F5D870F1
:1015400000EB0110C06800F47F40000A5871206869
:1015500000F5D87000EB0110C06800F47F00000CAB
:101560009871206800F5D87000EB0110C068000E7B
:10157000D87131B92068C06840F020002668F0605A
:1015800005E02068006940F02000266830610020F6
:101590005AE7606A40F480206062012054E72DE938
:1015A000F05F04460025206846692068D0F8049062
:1015B000206887682068D0F80CA02068D0F810B0A8
:1015C0002068D0F8188006F00100002855D007F0F8
:1015D0000100C0B101202168886007F0020018B145
:1015E000204600F09BFA0EE007F0040010B145F42D
:1015F000006508E007F0080010B145F4805502E0EE
:10160000204600F08AFA07F48070C8B14FF4807069
:101610002168886007F4007018B1204600F080FA55
:101620000EE007F4806010B145F4005508E007F4BF
:10163000006010B145F4804502E0204600F06FFAEA
:1016400007F48030C8B14FF480302168886007F417
:10165000003018B1204600F065FA0EE007F4802053
:1016600010B145F4004508E007F4002010B145F43E
:10167000803502E0204600F054FA06F0080038B148
:101680000AF0100020B145F4007510202168C860F0
:1016900006F0040040B10AF0080028B108202168D3
:1016A000C860204600F00EFA06F0020038B120684B
:1016B000C06800F0030010B1204600F005FA06F003
:1016C000400038B10BF0100020B145F480651020C7
:1016D0002168086106F0200040B10BF0080028B135
:1016E000082021680861204600F014FA06F0100076
:1016F00038B12068006900F0030010B1204600F006
:101700000AFA06F4003040B109F0100028B11020A8
:1017100021684860204600F0FFF906F4803040B1AF
:1017200009F0080028B1082021684860204600F030
:10173000FAF906F4004088B309F0040078B306F41F
:10174000807020B108F0010008B145F0010506F4F1
:10175000007020B108F0020008B145F0020506F45F
:10176000806020B108F0040008B145F0040506F4DB
:101770000060A0B108F0700088B108F07000402847
:1017800017D006DC10280BD020280CD0302819D117
:101790000CE0502810D0602814D110E01DE019E0B2
:1017A00045F008050FE045F010050CE045F0200578
:1017B00009E045F0400506E045F0800503E045F40A
:1017C000807500E000BF00BF2068806920F07000D5
:1017D000216888610420216848602DB1606A28432F
:1017E00060622046FFF71CFEBDE8F09F70B504461E
:1017F0000CB9012070BD94F8200010B9204600F00B
:10180000AFF82068006820F002002168086000F04E
:1018100021FD05460DE000F01DFD401B0A2808D9FA
:10182000606A40F400306062052084F820000120E6
:10183000E0E72068406800F002000028EBD1206853
:10184000006840F001002168086000F003FD0546D3
:101850000DE000F0FFFC401B0A2808D9606A40F444
:1018600000306062052084F820000120C2E7206873
:10187000406800F001000028EBD0207E012806D14E
:101880002068006840F080002168086005E020685A
:10189000006820F0800021680860607E012806D181
:1018A0002068006840F040002168086005E020687A
:1018B000006820F0400021680860A07E012806D161
:1018C0002068006840F020002168086005E020687A
:1018D000006820F0200021680860E07E012806D121
:1018E0002068006820F010002168086005E020688A
:1018F000006840F0100021680860207F012806D1B0
:101900002068006840F008002168086005E0206851
:10191000006820F0080021680860607F012806D177
:101920002068006840F004002168086005E0206835
:10193000006820F0040021680860D4E9020108432F
:1019400021690843616908436168491E08432168A9
:10195000C86100206062012084F82000002049E76F
:1019600010B586B00446142101A8FEF7E5FC4F49E6
:101970002068884241D14E480068401C4C490860AC
:101980000846006801280FD100BF00200090494898
:10199000006840F00070474908600846006800F0A1
:1019A0000070009000BF00BF00BF002000904148C1
:1019B0001038006840F008003E49103908600846B9
:1019C000006800F00800009000BF00BF03200190F5
:1019D000022002900020039003200490092005902B
:1019E00001A9354800F022FB00220621142000F056
:1019F000E1FC142000F0CEFC55E03049206888421C
:101A000051D100BF002000902A48006840F080605B
:101A1000284908600846006800F08060009000BF18
:101A200000BF23480068401C214908600846006840
:101A300001280FD100BF002000901E48006840F030
:101A400000701C4908600846006800F000700090B3
:101A500000BF00BF00BF002000901648103800688B
:101A600040F002001349103908600846006800F091
:101A70000200009000BF00BF4FF4405001900220D0
:101A8000029000200390032004900920059001A9F2
:101A90000B4800F0CBFA00220521402000F08AFC20
:101AA000402000F077FC06B010BD0000006400404C
:101AB0000400002040380240000C02400068004052
:101AC000000402407047000070B505462846FFF745
:101AD0003DFC044604F15C0304F118020021284691
:101AE000FFF79FFC09492868884205D104F15C0191
:101AF000A06904F0C6FA08E005492868884204D1C4
:101B000004F15C01A06904F0BDFA70BD00640040FE
:101B100000680040704770477047704770477047D3
:101B2000704770477047704770B50446A56D00F068
:101B300091FB064694F83500022808D080206065A5
:101B400000BF002084F8340000BF012070BD206871
:101B5000006820F01600216808602068406920F0C5
:101B6000800021684861206C08B9A06C28B1206809
:101B7000006820F00800216808602068006820F0F4
:101B80000100216808600FE000F064FB801B05285D
:101B90000AD92020606500BF002084F8340000BF0F
:101BA000032084F83500D1E72068006800F00100C8
:101BB0000028E9D194F85C103F208840A86000BF5D
:101BC000002084F8340000BF012084F83500002094
:101BD000BCE7014691F83500022803D08020486513
:101BE00001207047052081F835000868006820F062
:101BF00001000A6810600020F3E70000F8B5044611
:101C0000002000908C4800684FF41651B0FBF1F7AB
:101C1000A56D2E6894F85C1008208840304098B17B
:101C20002068006800F0040070B12068006820F0AF
:101C300004002168086094F85C1008208840A860BF
:101C4000606D40F00100606594F85C1001208840F0
:101C5000304068B12068406900F0800040B194F8DD
:101C60005C1001208840A860606D40F00200606553
:101C700094F85C1004208840304068B12068006807
:101C800000F0020040B194F85C1004208840A86085
:101C9000606D40F00400606594F85C10102088408E
:101CA000304078B32068006800F0080050B394F822
:101CB0005C1010208840A8602068006800F4802034
:101CC00080B12068006800F4002028B9206CC8B1F9
:101CD0002046216C884715E0A06C98B12046A16C85
:101CE00088470FE02068006800F4807028B92068F9
:101CF000006820F0080021680860206C10B12046C0
:101D0000216C884794F85C102020884030400028DF
:101D100065D02068006800F0100000285FD094F8BB
:101D20005C1020208840A86094F83500052828D150
:101D30002068006820F0160021680860206840696B
:101D400020F0800021684861206C08B9A06C28B19F
:101D50002068006820F008002168086094F85C1092
:101D60003F208840A86000BF002084F8340000BFF6
:101D7000012084F83500206D10B12046216D884780
:101D8000F8BD2068006800F4802080B120680068F9
:101D900000F4002028B9606C10B12046616C8847BF
:101DA0001DE0E06BD8B12046E16B884717E0206862
:101DB000006800F4807068B92068006820F01000A6
:101DC0002168086000BF002084F8340000BF0120B3
:101DD00084F83500E06B10B12046E16B8847606DF8
:101DE00038B3606D00F00100F0B1052084F83500D3
:101DF0002068006820F001002168086000BF00989A
:101E0000401C0090B84200D905E02068006800F04E
:101E100001000028F3D100BF00BF002084F8340087
:101E200000BF012084F83500E06C10B12046E16C61
:101E3000884700BFA4E70000140000202DE9F0410E
:101E40000446002500F006FA074614B90120BDE853
:101E5000F081606A00B100BF00BF002084F8340048
:101E600000BF022084F835002068006820F00100DF
:101E7000216808600AE000F0EDF9C01B052805D9CB
:101E800020206065032084F83500E0E720680068C2
:101E900000F001000028EED12068056821480540C7
:101EA000D4E901010843E1680843216908436169F5
:101EB0000843A1690843E1690843216A08430543CF
:101EC000606A042803D1D4E90B0108430543206864
:101ED00005602068456925F00705606A0543606A6A
:101EE00004280DD1A06A0543E06A48B12046FEF7F8
:101EF00089FE28B140206065012084F83500A6E7FE
:101F0000206845612046FEF763FE064694F85C10A3
:101F10003F208840B06000206065012084F83500D3
:101F2000002094E73F8010F02DE9F04704460D466D
:101F300016461F464FF00008D4F8589000BF94F89A
:101F40003400012802D10220BDE8F087012084F886
:101F5000340000BF94F8350001282BD1022084F80A
:101F60003500002060653B46324629462046FEF794
:101F70009EFE94F85C103F208840C9F80800206855
:101F8000006840F01600216808602068406940F051
:101F9000800021684861206C28B12068006840F00A
:101FA0000800216808602068006840F0010021688E
:101FB000086006E000BF002084F8340000BF4FF046
:101FC00002084046C0E70000402819D10D490968C1
:101FD000496A0D4A1268891A06D00C490988491CB9
:101FE00009B20A4A118005E008490988491E09B268
:101FF000064A118003490968496A034A116000BF13
:1020000000BF7047F00100209800002094000020DD
:1020100010B5044604480068204020B1024804601E
:102020002046FFF7D1FF10BD143C0140F8B5024631
:102030000B460025002400200021E6E0012606FAD8
:1020400001F51E6806EA0504AC4273D15E68022EF3
:1020500002D05E68122E13D1CF0802F1200656F886
:1020600027004E07F70E0F26BE40B0434F07FF0E66
:102070001E69BE403043CF0802F1200646F8270013
:1020800010684F000326BE40B0431E7906F00306D9
:102090004F00BE40304310605E68012E08D05E687D
:1020A000022E05D05E68112E02D05E68122E13D16A
:1020B00090684F000326BE40B0434F00DE68BE402C
:1020C00030439060506801268E40B0431E79C6F3BD
:1020D00000168E4030435060D0684F000326BE404B
:1020E000B0434F009E68BE403043D0605E6806F04B
:1020F0008056B6F1805FA8D100BF00260096454EFD
:10210000366846F48046434F3E603E46366806F4E5
:102110008046009600BF00BF3F4E8F0856F827004C
:102120008E07370F0F26BE40B0433C4EB24202D15D
:1021300000262EE068E03A4EB24201D1012628E0A6
:10214000384EB24201D1022623E0374EB24201D1CD
:1021500003261EE0354EB24201D1042619E0344E6A
:10216000B24201D1052614E0324EB24201D1062618
:102170000FE0314EB24201D107260AE02F4EB242A3
:1021800001D1082605E02E4EB24201D1092600E019
:102190000A268F073F0FBE4030431F4E8F0846F878
:1021A0002700284E3068A0435E6806F48036B6F5F6
:1021B000803F00D12043234E3060361D3068A0435D
:1021C0005E6806F40036B6F5003F00D120431D4E90
:1021D000361D3060361D3068A0435E6806F48016F8
:1021E000B6F5801F00D12043164E08363060361DEC
:1021F0003068A0435E6806F40016B6F5001F00D1F3
:102200002043104E0C363060491C1029FFF416AFE5
:10221000F8BD000044380240083801400000024088
:102220000004024000080240000C0240001002407E
:102230000014024000180240001C0240002002402E
:1022400000240240003C01400AB1816101E00B041E
:102250008361704701480068704700000800002053
:102260000348006803490978084401490860704739
:10227000080000201000002010B50D48006840F450
:1022800000700B4908600846006840F480600860F0
:102290000846006840F480700860032000F0C8F829
:1022A000002000F007F800F04BF8002010BD0000FF
:1022B000003C024070B588B004460025002600228C
:1022C0002146362000F076F8362000F063F800BF93
:1022D000002001901648006840F010001449086082
:1022E0000846006800F01000019000BF00BF02A97E
:1022F00003A800F0B7F900F0DDF945000D48B5FB83
:10230000F0F0461E0C480D49086040F2E7310B48DA
:10231000C160466000210161816000F0CDFC20B900
:10232000064800F061FD08B070BD0120FBE7000029
:102330004038024040420F0000100040D00500200D
:1023400008B500BF002000901148006840F48040AC
:102350000F4908600846006800F48040009000BF04
:1023600000BF00BF00200090081F006840F08050B0
:10237000091F08600846006800F08050009000BF08
:1023800000BF00220F21901E00F014F808BD0000CD
:102390004438024001460846002809DB00F01F03CC
:1023A00001229A4043099B0003F1E023C3F8002176
:1023B00000BF70472DE9F05F80460D4616460027A6
:1023C00003F088F8074639462A46334601F00700ED
:1023D000C0F1070ABAF1040F02D94FF0040A01E074
:1023E000C0F1070AD14600F1040ABAF1070F02D280
:1023F0004FF0000A01E0A0F1030AD4464FF0010AB1
:102400000AFA09FAAAF1010A0AEA020A0AFA0CFA15
:102410004FF0010B0BFA0CFBABF1010B0BEA030BBA
:102420004AEA0B042146404603F05CF8BDE8F09F01
:1024300000BF00F00702064B19684FF6FF03194072
:10244000044B0B4343EA0221014B196000BF704764
:102450000CED00E00000FA0538B5002400BF0020B4
:1024600000901D48006840F080501B4908600846F5
:10247000006800F08050009000BF00BF01201749A5
:102480000864FFF7E7FE044607E0FFF7E3FE001BE2
:10249000B0F57A7F01D9032038BD1148406800F4B7
:1024A0008030B0F5803FF0D101200C494864FFF73F
:1024B000D1FE044607E0FFF7CDFE001BB0F57A7FA2
:1024C00001D90320E8E70648406800F40030B0F581
:1024D000003FF0D10020DFE74038024000000E420C
:1024E0000070004070B504460D460CB9012070BD67
:1024F0005848006800F00F00A84209D255490D70F5
:102500000846006800F00F00A84201D00120EEE765
:10251000207800F0020002281DD1207800F004008D
:10252000042805D14C48006840F4E0504A4908604E
:10253000207800F00800082805D14748006840F4DA
:102540006040454908604448006820F0F000A168F8
:10255000084341490860207800F00100A8B3606892
:10256000012807D13C4808380068C0F34040B8B99A
:102570000120BCE76068022802D06068032807D108
:10258000354808380068C0F3406048B90120AEE71C
:10259000314808380068C0F3400008B90120A6E7B8
:1025A0002D48006820F00300616808432A4908604C
:1025B000FFF750FE064609E0FFF74CFE801B41F294
:1025C0008831884202D9032091E707E02248006859
:1025D00000F00C006168B0EB810FEDD11D48006880
:1025E00000F00F00A84209D91A490D70084600688A
:1025F00000F00F00A84201D0012078E7207800F019
:102600000400042807D11448006820F4E050E16871
:10261000084311490860207800F00800082808D114
:102620000D48006820F46040216940EAC1000A4971
:10263000086000F05FF808490968C1F30311074A10
:10264000515CC840064908600020FFF733FE0020B7
:102650004DE70000003C0240083802404483000877
:10266000140000200F2202600D4A126802F00302DB
:1026700042600B4A126802F0F0028260084A126857
:1026800002F4E052C260064A126802F46042D208C4
:102690000261044A126802F00F020A6070470000EB
:1026A00008380240003C02400148006870470000C2
:1026B0001400002000B5FFF7F7FF04490968C1F3D3
:1026C0008221034A515CC84000BD00000838024026
:1026D0005483000800B5FFF7E7FF04490968C1F318
:1026E0004231034A515CC84000BD00000838024036
:1026F000548300082DE9F047002400250026A14658
:102700002548006800F00C0020B1042805D00828F6
:102710003AD105E0DFF8849039E0DFF8849036E0C4
:102720001D48001F006800F03F041B48001F0068A0
:1027300000F4800078B11A481749091F0968C1F3ED
:102740008811A0FB01700146224600233846FDF7A0
:10275000A9FD05460EE011480F49091F0968C1F39C
:102760008811A0FB01700146224600233846FDF780
:1027700099FD05460848001F0068C0F30140401C51
:102780004600B5FBF6F902E0DFF8109000BF00BF8D
:102790004846BDE8F0870000083802400024F400F5
:1027A000001BB700F8B504460CB90120F8BD20782D
:1027B00000F00100002874D0F948006800F00C0017
:1027C00004280DD0F648006800F00C00082813D14A
:1027D000F348001F006800F48000B0F5800F0BD1B3
:1027E000EF4808380068C0F34040002859D06068BE
:1027F000002856D10120D9E700BF6068B0F5803FBE
:1028000008D1E7480838006840F48030E4490839C6
:1028100008601EE06068B0F5A02F0DD1E0480838D0
:10282000006840F48020DE490839086008460068E6
:1028300040F4803008600CE0D9480838006820F483
:102840008030D749083908600846006820F48020A5
:10285000086000BF606890B1FFF7FCFC054606E029
:10286000FFF7F8FC401B642801D903209EE7CC4801
:1028700008380068C0F340400028F1D011E0FFF7AD
:10288000E9FC054606E0FFF7E5FC401B642801D99A
:1028900003208BE7C24808380068C0F34040002896
:1028A000F1D1207800F0020002285FD1BC48006816
:1028B00000F00C0058B1BA48006800F00C0008287D
:1028C0001CD1B748001F006800F48000B0B9B448BC
:1028D00008380068C0F3400020B1E068012801D04A
:1028E000012063E7AE480838006820F0F80021694D
:1028F00040EAC100AA490839086037E0E06800B33F
:102900000120A8490860FFF7A5FC054606E0FFF78F
:10291000A1FC401B022801D9032047E7A048083842
:102920000068C0F340000028F1D09D4808380068D6
:1029300020F0F800216940EAC1009949083908608F
:1029400014E0002097490860FFF784FC054606E084
:10295000FFF780FC401B022801D9032026E790489E
:1029600008380068C0F340000028F1D1207800F05A
:10297000080008282CD16069A8B101208A490860A4
:10298000FFF768FC054606E0FFF764FC401B0228E1
:1029900001D903200AE782486C300068C0F3400088
:1029A0000028F1D014E000207F490860FFF752FCB6
:1029B000054606E0FFF74EFC401B022801D9032024
:1029C000F4E677486C300068C0F340000028F1D18D
:1029D000207800F00400042870D1002670483830B8
:1029E000006800F0805090B900BF002000906C4853
:1029F0003830006840F08050694938310860084636
:102A0000006800F08050009000BF00BF01266748BA
:102A1000006800F48070B0B96448006840F48070C9
:102A200062490860FFF716FC054606E0FFF712FC56
:102A3000401B022801D90320B8E65C48006800F476
:102A400080700028F2D000BFA068012808D1544847
:102A50006830006840F001005149683108601DE0AD
:102A6000A06805280DD14E486830006840F0040089
:102A70004B49683108600846006840F00100086072
:102A80000CE047486830006820F001004449683194
:102A900008600846006820F00400086000BFA068D5
:102AA000A8B1FFF7D7FB054609E0FFF7D3FB401BB2
:102AB00041F28831884202D9032077E626E038487F
:102AC00068300068C0F340000028EED013E0FFF744
:102AD000C1FB054608E0FFF7BDFB401B41F2883112
:102AE000884201D9032061E62D4868300068C0F3B0
:102AF00040000028EFD1012E07D129483830006866
:102B000020F0805026493831086000BFA069B8B372
:102B10002348006800F00C0008285ED0A069022855
:102B200046D100201F490866FFF794FB054606E0E2
:102B3000FFF790FB401B022801D9032036E6184816
:102B400008380068C0F340600028F1D1D4E90701DB
:102B50000843616A40EA81110122A06AC2EB500079
:102B600041EA00412C20005D41EA00600C49091F48
:102B7000086001200B490866FFF76CFB054607E07B
:102B80002DE0FFF767FB401B022801D903200DE66B
:102B9000034808380068C0F340600028F1D01EE008
:102BA0000838024000004742800E47420070004053
:102BB00000200C490866FFF74DFB054606E0FFF7CD
:102BC00049FB401B022801D90320EFE506480068B5
:102BD000C0F340600028F2D101E00120E6E50020CA
:102BE000E4E50000000047420038024070477047AB
:102BF00010B50346002200BF93F83C00012801D124
:102C0000022010BD012083F83C0000BF22F0FF002D
:102C1000CC6840EA040222F440708C6840EA040266
:102C200022F480604C6840EA040222F400600C68E0
:102C300040EA040222F480500C6940EA040222F4C3
:102C400000504C6940EA040222F48040CC6940EA1A
:102C500004021868426400BF002083F83C0000BFF3
:102C600000BFCEE710B5024600BF92F83C00012835
:102C700001D1022010BD012082F83C0000BF0220DB
:102C800082F83D00106843681068846823F0700380
:102C90000868034324F080044868044310684360D4
:102CA00010688460012082F83D0000BF002082F897
:102CB0003C0000BF00BFDDE710B504460CB90120A1
:102CC00010BD94F83D0028B9002084F83C0020464F
:102CD00000F00CF8022084F83D00211D206801F06E
:102CE0003BFE012084F83D000020E9E710B586B0E6
:102CF0000446142101A8FDF71FFB2068B0F1804FA6
:102D000037D100BF002000903348006840F0010038
:102D1000314908600846006800F00100009000BFDB
:102D200000BF00BF002000902B481038006840F022
:102D300001002949103908600846006800F00100C8
:102D4000009000BF00BF0C200190022002900020E4
:102D5000039004900120059001A92048FFF766F92F
:102D6000002205211C20FFF725FB1C20FFF712FB8A
:102D700030E01B492068884218D100BF0020009035
:102D80001548006840F020001349086008460068B4
:102D900000F02000009000BF00BF00220521372076
:102DA000FFF708FB3720FFF7F5FA13E00D4920681D
:102DB00088420FD100BF002000900748006840F013
:102DC0004000054908600846006800F04000009097
:102DD00000BF00BF06B010BD4038024000000240F6
:102DE000001400400018004001460868C06840F028
:102DF00001000B68D8600868806800F00702062AA6
:102E000005D00868006840F001000B6818600020D9
:102E100070472DE9F04104460D4600BF94F83C0090
:102E2000012802D10220BDE8F081012084F83C0095
:102E300000BF022084F83D002068866826F07706EF
:102E400026F47F46206886602868502833D00CDC42
:102E5000202850D004DC00284BD0102851D149E064
:102E6000302849D040284CD139E060282DD0702836
:102E700007D0B0F5805F03D0B0F5005F41D10DE021
:102E800040E0D5E902136A68206801F0E2FD20689D
:102E9000866846F077062068866033E0D5E902133D
:102EA0006A68206801F0D5FD2068806840F48040A1
:102EB0002168886026E0EA686968206801F0BAFE47
:102EC0005021206801F0D0FD1CE0EA6869682068A4
:102ED00001F00CFF6021206801F0C6FD12E0EA68F5
:102EE0006968206801F0A6FE4021206801F0BCFD61
:102EF00008E000BF00BF00BF2968206801F0B4FDF2
:102F000000E000BF00BF012084F83D0000BF0020AA
:102F100084F83C0000BF00BF85E72DE9F04104467E
:102F20000D4614B90120BDE8F08194F83D0028B9A0
:102F3000002084F83C00204600F046F8022084F887
:102F40003D002068806844F207018843216888605A
:102F5000211D206801F000FD2068D0F8088020685D
:102F600086692068076A286840EA080840F203304A
:102F70008643A969A86840EA0120064340F60C4050
:102F800086434FF2F0008643E969E86840EA012091
:102F9000064328690001296A40EA0130064327F008
:102FA000220727F088076969686840EA011007432B
:102FB0002068C0F8088020688661206807620120C8
:102FC00084F83D000020AEE710B586B00446142119
:102FD00001A8FDF7B1F91B49206888422FD100BF35
:102FE000002000901848006840F002001649086070
:102FF0000846006800F00200009000BF00BF00BF5C
:103000000020009010481038006840F004000E497D
:10301000103908600846006800F00400009000BF06
:1030200000BFC020019002200290012003900020E8
:1030300004900220059001A90448FEF7F7FF06B0AE
:1030400010BD00000004004040380240000802406B
:1030500010B50446207F042879D18E4800780028D6
:1030600044D108218C4800F0E5FB8C49086000BF82
:1030700089480068006A4FF2FF5108408649096894
:10308000086285480068006A40F400708249096857
:10309000086200BF0821804800F0A5F901207D49A1
:1030A00008707F48006818B900207E49086018E061
:1030B0007A4800687A490968884207D977480068E1
:1030C00077490968401A774908600AE07348006840
:1030D0004FF6FF71084472490968401A401C714953
:1030E00008606E4800686E490860D1E06948007861
:1030F0000128FAD10821684800F09CFB6A49086061
:1031000000BF65480068006A4FF2FF5108406249FD
:103110000968086260480068006A5F4909680862D7
:1031200000BF08215C4800F05EF95F4800685B4919
:10313000096888420CD25C4800684FF6FF71084469
:1031400056490968401A401C5849086007E011E0D8
:103150005548006851490968401A54490860514867
:10316000006818B151480068514908600020494979
:1031700008708DE0207F0828B7D14E480078A0BBAA
:103180000C21454800F056FB4B49086000BF4248FF
:103190000068006A45F6FF7108403F490968086207
:1031A0003D480068006A40F400503B4909680862E5
:1031B00000BF0C21384800F016F901203D49087085
:1031C0003E48006818B900203D49086019E03A48B7
:1031D00000683A490968884208D937480068374981
:1031E0000968401A364908600BE00FE03248006871
:1031F0004FF6FF71084431490968401A401C3049B4
:1032000008602D4800682D49086041E02948007891
:1032100001283DD10C21204800F00CFB2949086011
:1032200000BF1D480068006A45F6FF7108401A4952
:103230000968086218480068006A17490968086246
:1032400000BF0C21144800F0CEF81E4800681A494F
:10325000096888420BD21B4800684FF6FF7108448A
:1032600015490968401A401C1749086006E01548CE
:10327000006811490968401A13490860104800683D
:1032800018B1114800681149086000200949087008
:1032900010BD0000AC000020B0010020BC000020E8
:1032A000B8000020A4000020C00000209C000020E6
:1032B000B0000020AD000020C8000020C4000020A5
:1032C000A8000020CC000020A0000020B4000020B6
:1032D0002DE9F04104460D46164600BF94F83C0027
:1032E000012802D10220BDE8F081012084F83C00D1
:1032F00000BF022084F83D0096B9EB68D5E90012C2
:10330000206801F0ABFC2068806920F00C00216887
:10331000886120688069A9680843216888613DE068
:10332000042E13D1EB68D5E90012206801F0F2FCFD
:103330002068806920F44060216888612068806985
:10334000A96840EA01202168886127E0082E12D18F
:10335000EB68D5E90012206801F0F9FC2068C0692B
:1033600020F00C002168C8612068C069A968084382
:103370002168C86112E0EB68D5E90012206801F00D
:1033800002FD2068C06920F440602168C86120689F
:10339000C069A96840EA01202168C861012084F859
:1033A0003D0000BF002084F83C0000BF00BF9AE74A
:1033B00010B504460CB9012010BD94F83D0028B9A1
:1033C000002084F83C00204600F00CF8022084F82D
:1033D0003D00211D206801F0BFFA012084F83D0066
:1033E0000020E9E7704770B504460D4635B1042D5D
:1033F0000BD0082D10D00C2D1CD114E02068C06813
:1034000040F002002168C86015E02068C06840F004
:1034100004002168C8600EE02068C06840F0080021
:103420002168C86007E02068C06840F0100021688B
:10343000C86000E000BF00BF01222946206801F0FB
:10344000F7FA2068806800F00706062E05D020688D
:10345000006840F0010021680860002070BD10B5D0
:10346000044620680069C0F34000D8B12068C068F5
:10347000C0F34000B0B16FF0020021680861012084
:1034800020772068806900F0030018B12046FFF71C
:10349000DFFD05E0204600F005F9204600F0BCF90C
:1034A0000020207720680069C0F38000D8B1206830
:1034B000C068C0F38000B0B16FF0040021680861FB
:1034C000022020772068806900F4407018B12046FF
:1034D000FFF7BEFD05E0204600F0E4F8204600F0CE
:1034E0009BF90020207720680069C0F3C000D8B1A4
:1034F0002068C068C0F3C000B0B16FF00800216858
:103500000861042020772068C06900F0030018B12A
:103510002046FFF79DFD05E0204600F0C3F8204659
:1035200000F07AF90020207720680069C0F30010CD
:10353000D8B12068C068C0F30010B0B16FF01000BF
:1035400021680861082020772068C06900F4407075
:1035500018B12046FFF77CFD05E0204600F0A2F8F8
:10356000204600F059F9002020772068006900F01B
:10357000010058B12068C06800F0010030B16FF060
:10358000010021680861204600F048F920680069C0
:10359000C0F3C01058B12068C068C0F3C01030B18B
:1035A0006FF08000216808612046FFF71FFB20684C
:1035B0000069C0F3801058B12068C068C0F3801063
:1035C00030B16FF0400021680861204600F04BF9EF
:1035D00020680069C0F3401058B12068C068C0F38B
:1035E000401030B16FF02000216808612046FFF7DD
:1035F000FEFA10BD10B586B00446142101A8FCF7F0
:103600009BFE2349206888421DD100BF0020009006
:103610002048006840F001001E4908600846006824
:1036200000F00100009000BF00BF8815019002204B
:1036300002900020039004900120059001A91648F3
:10364000FEF7F4FC21E01549206888421DD100BF37
:10365000002000900F48006840F002000D4908600B
:103660000846006800F00200009000BF00BF4FF461
:1036700080400190022002900020039004900920D5
:10368000059001A90648FEF7D1FC06B010BD000068
:1036900000000140303802400000024000180040A5
:1036A00000040240704770B504460D46164600BF40
:1036B00094F83C00012801D1022070BD012084F85B
:1036C0003C0000BF022084F83D0036B1042E1BD020
:1036D000082E31D00C2E5ED145E02946206801F03D
:1036E000CDF92068806940F0080021688861206871
:1036F000806920F004002168886120688069296958
:1037000008432168886147E02946206801F0EEF906
:103710002068806940F400602168886120688069C1
:1037200020F480602168886120688069296940EA06
:103730000120216888612FE02946206801F014FAF1
:103740002068C06940F008002168C8612068C0692D
:1037500020F004002168C8612068C0692969084315
:103760002168C86118E02946206801F039FA20680C
:10377000C06940F400602168C8612068C06920F415
:1037800080602168C8612068C069296940EA012019
:103790002168C86100E000BF00BF012084F83D003F
:1037A00000BF002084F83C0000BF00BF85E710B5D3
:1037B00004460CB9012010BD94F83D0028B9002042
:1037C00084F83C00204600F00DF8022084F83D000B
:1037D000211D206801F0C0F8012084F83D00002080
:1037E000E9E7000008B50A4A016891420FD100BF1D
:1037F000002100910749096841F00101054A116063
:103800001146096801F00101009100BF00BF08BD29
:1038100000000140443802407047000010B50446E3
:1038200003492068884201D1FEF71AFD10BD00004F
:10383000001000400246002031B1042907D00829B9
:1038400008D00C290CD108E01368586B09E0136804
:10385000986B06E01368D86B03E01368186C00E0FF
:1038600000BF00BF7047704770B504460025206850
:103870004069C0F3C01594F8390021280ED16DB10C
:103880002068406920F0800021684861206B10B1F9
:10389000206BFEF749F9204601F032FB20684069B1
:1038A000C0F3801594F83A0022280ED16DB120683B
:1038B000406920F0400021684861606B10B1606B86
:1038C000FEF732F9204601F0FBFA002070BD704788
:1038D0002DE9F0470446206805682068C66820681E
:1038E00047694FF00008C14605F00F08B8F1000F16
:1038F0000AD105F0200038B106F0200020B12046A2
:1039000001F008FBBDE8F087B8F1000F6ED007F0BA
:10391000010018B906F49070002867D005F0010086
:1039200030B106F4807018B1E06B40F00100E06344
:1039300005F0040030B107F0010018B1E06B40F071
:103940000200E06305F0020030B107F0010018B199
:10395000E06B40F00400E06305F0080030B107F0D0
:10396000010018B1E06B40F00800E063E06B70B359
:1039700005F0200028B106F0200010B1204601F02B
:10398000C9FA20684069C0F38019E06B00F00800B4
:1039900010B9B9F1000F23D0204601F091FA206848
:1039A000406900F04000402816D12068406920F0AE
:1039B000400021684861606B50B11748616B086531
:1039C000606BFEF706F910B1606B016D88470CE083
:1039D0002046FFF77CFF08E02046FFF778FF04E071
:1039E0002046FFF774FF0020E0638BE705F08000BE
:1039F00030B106F0800018B1204601F093FC81E759
:103A000005F0400030B106F0400018B1204601F04A
:103A100067FA77E700BF75E7094E000810B504465E
:103A20000CB9012010BDA06900B100E000BF94F8FE
:103A3000390028B9002084F83800204600F028F822
:103A4000242084F839002068C06820F400502168E0
:103A5000C860204601F0B2FA2068006920F4904066
:103A6000216808612068406920F02A0021684861C7
:103A70002068C06840F400502168C8600020E063FE
:103A8000202084F8390084F83A000020CAE70000BA
:103A900010B586B00446142101A8FCF74DFCE4499A
:103AA0002068884256D100BF00200090E14800689D
:103AB00040F08040DF4908600846006800F0804020
:103AC000009000BF00BF00BF00200090D948103810
:103AD000006840F01000D7491039086008460068B7
:103AE00000F01000009000BF00BF4FF4C0700190C4
:103AF00002200290012003900320049008200590EA
:103B000001A9CD48FEF792FACC48CD4908604FF0A4
:103B1000206048600021CA488160C1604FF4806124
:103B20000161002141618161C16101624162FEF771
:103B300085F908B1FDF77DFA00BFC1486063846371
:103B400000BF002206215220FEF734FC5220FEF76F
:103B500021FC6BE1BB492068884255D100BF0020A1
:103B60000090B448006840F00040B2490860084640
:103B7000006800F00040009000BF00BF00BF0020C0
:103B80000090AC481038006840F01000A949103986
:103B900008600846006800F01000009000BF00BFF9
:103BA0000320019002200290012003900320049042
:103BB0000820059001A9A048FEF738FA9F48483030
:103BC000A14908600005486000219F488160C160EC
:103BD0004FF480610161002141618161C161016235
:103BE0004162FEF72BF908B1FDF723FA00BF9648B2
:103BF0006063846300BF002205215320FEF7DAFBD7
:103C00005320FEF7C7FB11E190492068884257D145
:103C100000BF002000908748001D006840F01000A1
:103C20008449091D08600846006800F010000090F3
:103C300000BF00BF00BF002000907E481038006821
:103C400040F002007B49103908600846006800F027
:103C50000200009000BF00BFC0200190022002902F
:103C600001200390032004900720059001A97848C3
:103C7000FEF7DCF97748784908604FF0006048604B
:103C8000002175488160C1604FF4806101610021AD
:103C900041618161C16101624162FEF7CFF808B103
:103CA000FDF7C7F900BF6C486063846300BF002262
:103CB00005212520FEF77EFB2520FEF76BFBB5E0F6
:103CC00066492068884256D100BF002000905948BC
:103CD000006840F40030574908600846006800F466
:103CE0000030009000BF00BF00BF0020009051488E
:103CF0001038006840F008004E4910390860084646
:103D0000006800F00800009000BF00BF6020019034
:103D100002200290012003900320049007200590C8
:103D200001A94F48FEF782F9444830304D490860F8
:103D30004FF00060486000214A488160C1604FF444
:103D400080610161002141618161C1610162416263
:103D5000FEF774F808B1FDF76CF900BF41486063E5
:103D6000846300BF002206212620FEF723FB2620C5
:103D7000FEF710FB5AE03C492068884256D100BF4C
:103D8000002000902B48006840F4802029490860FA
:103D90000846006800F48020009000BF00BF00BF0C
:103DA0000020009023481038006840F008002149A6
:103DB000103908600846006800F00800009000BF55
:103DC00000BF4FF440700190022002900120039048
:103DD000032004900720059001A92148FEF726F949
:103DE00016483038214908604FF0006048600021D3
:103DF0001E488160C1604FF4806101610021416112
:103E00008161C16101624162FEF718F808B1FDF7F6
:103E100010F900BF15486063846300BF00220721CA
:103E20002720FEF7C7FA2720FEF7B4FA06B010BD28
:103E300000780040403802400010024058600240C4
:103E4000F0030020007C00405004002000100140DE
:103E50000004024040640240B004002000440040DE
:103E6000000C0240100500200048004070050020B2
:103E700077B581B00446154694F83A00202850D111
:103E8000029800B115B9012004B070BD00BF94F8CC
:103E90003800012801D10220F6E7012084F838001B
:103EA00000BF0298A062A5850020E063222084F86C
:103EB0003A001D48616BC8631C48616B08641C486C
:103EC000616BC8640020616B086502AE32682368CC
:103ED000191D2B46606BFEF727F800BF00200090ED
:103EE00020680068009020684068009000BF00BF14
:103EF00000BF002084F8380000BF2068C06840F48C
:103F000080702168C8602068406940F00100216825
:103F100048612068406940F0400021684861002005
:103F2000B2E70220B0E700006D4E0008B34E000873
:103F30001D4E000870477047704700BFFEE7000045
:103F400010B50E480E4908600520486000210C4855
:103F500081604FF08071C1604FF4C0210161002188
:103F60004161017641768176C17601774177FDF72F
:103F70003DFC08B1FDF75DF810BD00000064004095
:103F80002001002010B50E480E4908600520486049
:103F900000210C4881604FF08071C1604FF4C02156
:103FA000016100214161017641768176C176017718
:103FB0004177FDF71BFC08B1FDF73BF810BD000091
:103FC000006800404801002008B500BF00200090B4
:103FD0002248006840F40010204908600846006844
:103FE00000F40010009000BF00BF00BF0020009050
:103FF0000846006840F4800008600846006800F445
:104000008000009000BF00BF002205210C20FEF7B9
:10401000D1F90C20FEF7BEF9002205210E20FEF793
:10402000C9F90E20FEF7B6F9002205211020FEF78F
:10403000C1F91020FEF7AEF9002205211120FEF78C
:10404000B9F91120FEF7A6F9002205213A20FEF762
:10405000B1F93A20FEF79EF908BD00003038024061
:104060007047000000B587B0142102A8FCF764F97E
:1040700000BF002001905948006840F010005749E7
:1040800008600846006800F01000019000BF00BF03
:1040900000BF002001900846006840F0080008605A
:1040A0000846006800F00800019000BF00BF00BF94
:1040B000002001900846006840F0010008600846B2
:1040C000006800F00100019000BF00BF00BF0020A9
:1040D00001900846006840F0020008600846006849
:1040E00000F00200019000BF00BF00BF002001905F
:1040F0000846006840F0800008600846006800F04C
:104100008000019000BF00BF00BF00200190084662
:10411000006840F0040008600846006800F00400F1
:10412000019000BF00BF002241F202012C48FEF7BF
:104130008BF801224FF47E412A48FEF785F80122D0
:1041400030212948FEF780F880200290002003905B
:10415000049002A92548FDF769FF402002902448F9
:1041600003900120049002A91E48FDF75FFF4FF461
:104170006060029000200390049002A91848FDF7A7
:1041800055FF41F2020002900120039004900020AC
:10419000059002A91248FDF749FF4FF47E400290B6
:1041A0000120039000200490059002A90D48FDF71E
:1041B0003DFF3020029001200390002004900590E4
:1041C00002A90948FDF732FF002205211720FEF75A
:1041D000F1F81720FEF7DEF807B000BD30380240D6
:1041E000000002400010024000040240000C0240A7
:1041F0000000111000B58BB00020079008900990C6
:104200000A901C216846FCF797F81B481B49086078
:104210005920486000211948816044F61F61C1603F
:10422000002101618161FEF747FD08B1FCF701FF44
:104230004FF48050079007A91048FEF7EAFD08B137
:10424000FCF7F7FE0D48FFF7B2FA08B1FCF7F1FEF4
:1042500060200090002001900290049000226946A6
:104260000648FFF720FA08B1FCF7E3FE0348FFF722
:10427000C1F90BB000BD0000001800407002002022
:1042800000B591B000200F9010901C2108A8FCF7F9
:1042900053F820216846FCF74FF82348234908606B
:1042A000B320486000212148816044F61F61C1604D
:1042B0000021016141618161FFF779FA08B1FCF7E2
:1042C000B8FE00200F9010900FA91848FEF7CAFC06
:1042D00008B1FCF7AEFE60200890002009900A901B
:1042E0000B900C900D900E90002208A90F48FFF73C
:1042F000DAF908B1FCF79DFE0020009001900290D1
:10430000039004904FF400500590002007906946F8
:104310000648FEF76DFC08B1FCF78BFE0348FFF77B
:1043200069F911B000BD00000000014070010020DB
:1043300000B58BB000200790089009900A90059076
:10434000069001900290039004904FF08040234922
:104350000860592048600021204881604FF6FE71B6
:10436000C160002101618161FEF7A6FC08B1FCF784
:1043700060FE4FF48050079007A91848FEF749FDEA
:1043800008B1FCF756FE1548FFF712F808B1FCF724
:1043900050FE00200590069005A91048FEF762FC2B
:1043A00008B1FCF746FE0020019001200290002099
:1043B000039004200490082201A90848FEF788FF12
:1043C00008B1FCF736FE0C2201A90448FEF780FF75
:1043D00008B1FCF72EFE0BB000BD0000B0010020BC
:1043E00000B58BB0242102A8FBF7A6FF00200090A7
:1043F00001901848184908600020486000211648BC
:10440000816040F2CF71C1600021016181610320B0
:104410000290002003900120049000200590069057
:10442000079001200890002009900A9002A90A48EC
:10443000FEF773FD08B1FCF7FCFD00200090019031
:1044400069460548FEF70EFC08B1FCF7F2FD0BB01B
:1044500000BD000000040040F00100201CB5002059
:10446000009001900E480F490860592048600021D3
:104470000C48816044F61F61C16000218161FEF734
:104480001BFC08B1FCF7D5FD0020009001906946A7
:104490000448FEF7E7FB08B1FCF7CBFD1CBD0000AC
:1044A000001400403002002010B50B480B49086092
:1044B0004FF4E1304860002108488160C16001612B
:1044C0000C21416100218161C161FFF7A7FA08B1A8
:1044D000FCF7AFFD10BD000000780040B0020020E6
:1044E00010B50B480B4908604FF4E13048600021DB
:1044F00008488160C16001610C2141610021816136
:10450000C161FFF78BFA08B1FCF793FD10BD000005
:10451000007C0040F002002010B50B480B490860F9
:104520000B484860002109488160C1604FF48061F8
:1045300001610C21416100218161C161FFF76EFAC7
:1045400008B1FCF776FD10BD0010014030030020DB
:10455000A086010010B50A480A4908600A48486068
:10456000002108488160C16001610C214161002186
:104570008161C161FFF752FA08B1FCF75AFD10BD25
:10458000004400407003002040420F0010B50B486B
:104590000B4908604FF4E130486000210848816011
:1045A000C16001610C21416100218161C161FFF79E
:1045B00035FA08B1FCF73DFD10BD00000048004091
:1045C000B003002000BFFEE770477CB5054600241D
:1045D0002846FCF7D7FE044604B10DB901207CBD86
:1045E00028680068C0F3001070B300BF002000907E
:1045F00028680068009028684068009000BF00BFED
:104600002846FFF731F9686B006846686078801BC0
:1046100060816089ADF804009DF80400616808704D
:104620009DF805006168487000231A466168E068DB
:1046300003F064FA61786068FBF77EFE6278606878
:10464000811C2846FFF714FC0020C8E710B502487B
:10465000FCF756FB10BD0000D471002010B50449D2
:104660000448FCF759FA0448006802F061FF10BDE5
:1046700030030020D4710020080100202DE9F04112
:1046800007460D460024002600BF10E004F1090093
:10469000012101FA00F0304386B20022314638464B
:1046A000FDF7D2FD284601F0EDFD601CC4B2072CD9
:1046B000ECDB012231463846FDF7C6FDBDE8F0814E
:1046C000024600210BE0084850F8210028B90648AE
:1046D00040F82120516000207047481CC1B21E29BB
:1046E000F1DB0120F8E70000E470002000BF642047
:1046F00001F0C8FDFBE7FCF741FE04462046FCF74D
:10470000F3FB00BFFCF738FC052001F0BBFDF9E727
:10471000FFF7A4FF00BFFFF799FF022001F0B2FDF1
:10472000F9E700008AB000BF1422174905A8FBF77B
:10473000EAFD002105A801F0B6FD14490860142225
:10474000114914316846FBF7DEFD0021684601F08F
:10475000AAFD0F4908600A2001F094FD4FF4FA7198
:104760000C48FFF78BFF01200B49087007480068D1
:1047700002F04AFE0648006802F046FE074800685C
:1047800002F07AFDD0E700007483000808010020E1
:104790000C01002000100240100100200401002044
:1047A00010B500F001F810BD00B585B0142207491E
:1047B0006846FBF7A8FD0021684601F074FD044936
:1047C0000860FCF761FC05B000BD000060830008D4
:1047D0000401002010B500BF502080F31188BFF302
:1047E0004F8FBFF36F8F00BF03F044FB18B14FF042
:1047F00080500449086000BF002080F3118800BF8A
:1048000010BD000004ED00E000B593B0302107A812
:10481000FBF792FD142102A8FBF78EFD00BF0020DC
:1048200001902648006840F08050244908600846FE
:10483000006800F08050019000BF00BF00BF002062
:1048400001901F48006840F440401D490860084638
:10485000006800F44040019000BF00BF01200790B5
:104860000004089002200D9041050E9106210F9141
:10487000B4211091022111910421129107A8FDF792
:1048800091FF08B1FCF7D5FBFDF7E6FD08B1FCF799
:10489000D0FB0F20029002200390002004904FF4E0
:1048A000A05005904FF480500690052102A8FDF716
:1048B00019FE08B1FCF7BDFB13B000BD4038024043
:1048C000007000401448006840F47000124908600D
:1048D0001248006840F001001049086000200F49AC
:1048E000083108600D4800680D4908400B49086010
:1048F0000C48091D0860081F006820F48020091F6B
:104900000860002005490C3108604FF00060024942
:10491000803908607047000088ED00E000380240F0
:10492000FFFFF6FE1030002410B50248FEF797FD99
:1049300010BD0000B001002010B50248FEF78FFD49
:1049400010BD0000D005002010B50248FEF787FD1D
:1049500010BD00003002002010B50268294B9842BB
:104960000ED0B0F1804F0BD0274B984208D0274B88
:10497000984205D0264B984202D0264B984203D14C
:1049800022F070024B681A431E4B984220D0B0F1BF
:10499000804F1DD01C4B98421AD01C4B984217D008
:1049A0001B4B984214D01B4B984211D01A4B984283
:1049B0000ED01A4B98420BD0194B984208D0194B85
:1049C000984205D0184B984202D0184B984203D118
:1049D00022F44072CB681A4322F080034C6943EA08
:1049E000040202608B68C3620B688362054B9842C5
:1049F00002D0084B984201D10B6903630123436144
:104A000010BD00000000014000040040000800400C
:104A1000000C0040000401400040014000440140FF
:104A20000048014000180040001C004000200040E9
:104A300030B501F01F05012404FA05F3046A9C4314
:104A40000462046A01F01F0502FA05F52C430462B2
:104A500030BD30B50C46816821F47F4142EA032520
:104A600025432943816030BD0A46816821F07001E9
:104A700042F00703194381607047000030B5056AB2
:104A800025F001050562026A4368846924F0700418
:104A900024F003040D682C4322F002028D682A439F
:104AA000104DA84200D103E00F4DA84206D100BF2F
:104AB00022F00802CD682A4322F00402094DA842E0
:104AC00002D0094DA84207D123F4807323F4007368
:104AD0004D692B438D692B43436084614D68456369
:104AE000026230BD000001400004014030B5056A9B
:104AF00025F010050562026A4368846924F4E044E5
:104B000024F440740D6844EA052422F020028D68E4
:104B100042EA0512124DA84200D103E0114DA8420D
:104B200007D100BF22F08002CD6842EA051222F0D0
:104B300040020B4DA84202D00A4DA84209D123F4ED
:104B4000806323F400634D6943EA85038D6943EA7A
:104B50008503436084614D688563026230BD000057
:104B6000000001400004014030B5056A25F480755D
:104B70000562026A4368C46924F0700424F00304E7
:104B80000D682C4322F400728D6842EA0522124D12
:104B9000A84200D103E0114DA84207D100BF22F482
:104BA0000062CD6842EA052222F480620A4DA842E2
:104BB00002D00A4DA84209D123F4805323F40053B4
:104BC0004D6943EA05138D6943EA05134360C461E7
:104BD0004D68C563026230BD000001400004014021
:104BE00030B5056A25F480550562036A4468C269D8
:104BF00022F4E04222F440720D6842EA052223F4D6
:104C000000538D6843EA0533084DA84202D0084D91
:104C1000A84204D124F480444D6944EA85144460D8
:104C2000C2614D680564036230BD000000000140B0
:104C30000004014030B50B461446026A056A25F0AF
:104C400001050562816921F0F00141EA041122F0B9
:104C50000A021A438161026230BD000070B50C4641
:104C60001546066A26F0010606628169026A184E38
:104C7000B04214D0B0F1804F11D0164EB0420ED0D9
:104C8000154EB0420BD0154EB04208D0144EB04273
:104C900005D0144EB04202D0134EB04201D10126CD
:104CA00000E000261EB121F00301294301E041F09C
:104CB000010121F0F001F02606EA0316314322F04B
:104CC0000A0204F00A0632438161026270BD0000EC
:104CD000000001400004004000080040000C0040BB
:104CE00000040140004001400018004030B50B4670
:104CF0001446056A25F0100505628169026A21F4EF
:104D0000704141EA043122F0A00242EA03128161BB
:104D1000026230BD70B50C461546066A26F01006D4
:104D200006628169026A21F4407141EA052121F499
:104D300070414FF4704606EA0336314322F0A00278
:104D4000A02606EA041632438161026270BD70B586
:104D50000C461546066A26F480760662C169026A28
:104D600021F00301294321F0F001F02606EA0316A1
:104D7000314322F420624FF4206606EA04263243CF
:104D8000C161026270BD70B50C461546066A26F414
:104D900080560662C169026A21F4407141EA052128
:104DA00021F470414FF4704606EA0336314322F491
:104DB00020424FF4204606EA04363243C1610262C3
:104DC00070BD000070B504460D4629462046FBF72D
:104DD00083FE6423034A0321A2F1180001F05AF96B
:104DE000022070BD2472002010B50248FEF770FD4D
:104DF00010BD0000B002002010B5024800F030FBEA
:104E000010BD0000F002002070B50546AC6B00201C
:104E1000E085E0842046FEF75AFD70BD70B5064679
:104E20000025B46B20684069C0F3C01594F83900C0
:104E3000212805D125B10020E084204600F060F84B
:104E400020684069C0F3801594F83A00222805D103
:104E500025B10020E085204600F032F8E06B40F0FC
:104E60001000E0632046FEF732FD70BD70B50546C8
:104E7000AC6B2868006800F48070B0B90020E08551
:104E80002068C06820F480702168C860206840698C
:104E900020F00100216848612068406920F040004E
:104EA00021684861202084F83A002046FFF742F844
:104EB00070BD70B50446A56B2846FFF73CF870BD81
:104EC0000168C96821F490710268D160016849697C
:104ED00021F0010102685161202180F83A107047E9
:104EE00010B504462068C06820F040002168C86002
:104EF000202084F839002046FFF71EF8002010BD5E
:104F00000168C96821F0C0010268D160202180F8E1
:104F10003910704770B5044694F83A0022284AD1F7
:104F2000A068B0F5805F13D1A56A206940B92068F8
:104F30004068C0F308002880A06A801CA06219E0C5
:104F400020684068C0B22880A06A401CA06211E0BE
:104F5000206938B920684068C1B2A26A501CA062BA
:104F6000117007E02068406800F07F01A26A501CC1
:104F7000A0621170E08D401E80B2E085C8B9206843
:104F8000C06820F020002168C8602068C06820F454
:104F900080702168C8602068406920F001002168A5
:104FA0004861202084F83A002046FEF7C3FF002025
:104FB00070BD0020FCE70220FAE700002DE9F04177
:104FC00004462068006920F44050E16808432168E5
:104FD00008612169A068084361690843E16940EA02
:104FE00001052068C06849F20C61884328432168A4
:104FF000C8602068406920F44070A16908432168B6
:105000004861E069B0F5004F7ED1C449206888420C
:1050100003D0C349206888425DD1FDF75BFB00EBFC
:10502000C00101EB001061684900B0FBF1F06421A0
:10503000B0FBF1F00601FDF74DFB00EBC00101EB09
:10504000001061684900B0FBF1F7FDF743FB00EB8E
:10505000C00101EB001061684900B0FBF1F0642170
:10506000B0FBF1F000EBC00101EB0010A7EB8000FA
:10507000322101EBC0006421B0FBF1F000F0F80038
:1050800006EB4006FDF726FB00EBC00101EB00102C
:1050900061684900B0FBF1F7FDF71CFB00EBC001B4
:1050A00001EB001061684900B0FBF1F06421B0FB36
:1050B000F1F000EBC00101EB0010A7EB8000322102
:1050C00001EBC0006421B0FBF1F000F007003044B8
:1050D0002168886020E1FDF7EDFA00EBC00101EBEB
:1050E000001061684900B0FBF1F06421B0FBF1F001
:1050F0000601FDF7DFFA00EBC00101EB001061686B
:105100004900B0FBF1F700E045E0FDF7D3FA00EB12
:10511000C00101EB001061684900B0FBF1F06421AF
:10512000B0FBF1F000EBC00101EB0010A7EB800039
:10513000322101EBC0006421B0FBF1F000F0F80077
:1051400006EB4006FDF7B6FA00EBC00101EB0010DC
:1051500061684900B0FBF1F7FDF7ACFA00EBC00164
:1051600001EB001061684900B0FBF1F06421B0FB75
:10517000F1F000EBC00101EB0010A7EB8000322141
:1051800001EBC0006421B0FBF1F000F007003044F7
:1051900021688860C0E061492068884203D0604986
:1051A000206888425CD1FDF795FA00EBC00101EB65
:1051B000001061688900B0FBF1F6FDF78BFA00EB97
:1051C000C00101EB001061688900B0FBF1F06421BF
:1051D000B0FBF1F000EBC00101EB0010A6EB80008A
:1051E000322101EB00106421B0FBF1F000F0F00679
:1051F000FDF770FA00EBC00101EB00106168890057
:10520000B0FBF1F06421B0FBF1F006EB0016FDF706
:1052100061FA00EBC00101EB001061688900B0FB8E
:10522000F1F7FDF757FA00EBC00101EB00106168E0
:105230008900B0FBF1F06421B0FBF1F000EBC0019C
:1052400001EB0010A7EB8000322101EB001064217C
:10525000B0FBF1F000F00F003044216888605BE0A3
:10526000FDF728FA00EBC00101EB0010616889002E
:10527000B0FBF1F6FDF71EFA00EBC00101EB0010E8
:1052800061688900B0FBF1F06421B0FBF1F000EB44
:10529000C00101EB0010A6EB8000322101EB0010F1
:1052A0006421B0FBF1F000F0F006FDF703FA00EB2B
:1052B000C00101EB001061688900B0FBF1F06421CE
:1052C000B0FBF1F006EB0016FDF7F4F900EBC001BE
:1052D00001EB001061688900B0FBF1F7FDF7EAF916
:1052E00000EBC00101EB001061688900B0FBF1F038
:1052F0006421B0FBF1F000EBC00101EB0010A7EB63
:105300008000322101EB00106421B0FBF1F000F0CD
:105310000F00304421688860BDE8F0810010014032
:1053200000140140014691F8390021282CD18868E9
:10533000B0F5805F0FD10A6A1088C0F308000B68CF
:105340005860086918B9086A801C086209E0086A90
:10535000401C086205E00B6A581C086218780B684C
:105360005860C88C401E80B2C88458B90868C068AC
:1053700020F080000B68D8600868C06840F04000EA
:105380000B68D860002070470220FCE710B5024887
:1053900000F066F810BD00003003002010B5024890
:1053A000FEF796FA10BD00007003002010B5024809
:1053B00000F056F810BD0000B003002000BFFEE76B
:1053C0002DE9F04105460E4617462846FBF7DCFA64
:1053D00028B1204600F0AAFE0120BDE8F081284651
:1053E000FBF7D0FF04460CB90120F6E70020E0608F
:1053F00066702772607800F00FFF6060606808B91F
:105400000120EAE762780521204600F016F838B15D
:10541000606800F08BFE204600F088FE0120DCE78B
:10542000627828466168FEF723FD2868C06840F06E
:1054300010002968C8600020CFE770B504460D460B
:1054400016460CB9012070BD00223146284602F0F4
:1054500009FAE060E06808B90120F4E70020F2E70B
:1054600010B504462046FFF7B0F810BD2DE9F04115
:1054700007460C4600263846FBF784FF064606B171
:1054800014B90020BDE8F08100222146F06802F046
:10549000B1FB054625B16078217840EA0120F1E7AB
:1054A0000020EFE703B401984100009850EAC120C2
:1054B00018BF04204A0D18BF40F0010040F2FF72EF
:1054C000B2EB515F08BF40F00200012808BF052081
:1054D00002B0704702480068C0F302207047000025
:1054E0000CED00E010B5002804DB0A07130E054A96
:1054F000135406E00A07140E034A00F00F031B1FA3
:10550000D45410BD00E400E018ED00E000000000FD
:1055100010B5B94A2DED020B2DED0C8B82B00F9911
:1055200021F000409FEDB6CB90422CDBA0F1405320
:105530000E9AA3F17F631A430FD0B349884202DC6D
:1055400016D10E98A0B19DED0E0B02B0BDEC0C8BE8
:1055500002B0BDE8104000F0A4BC0029C1BF9FED1F
:10556000AC0B02B0BDEC0C8B02B0C8BF10BD16E096
:10557000012000F0DDFC02B0BDEC0C8B02B0BDE8F8
:10558000104000F0A5BCA44A9FEDA59B9FEDA6ABE3
:1055900090425EDAA6499FEDA8CB814208DBB0EECF
:1055A0004C0AF0EE6C0A02B0BDEC0C8B02B010BDE0
:1055B0009DED0E0B53EC102B51EC100BFAF76EFF18
:1055C00041EC180B9E480621B0EE480AF0EE680A3E
:1055D000784400F0EAFB53EC182B51EC100BFAF76F
:1055E0005DFF41EC1B0B9748B0EE480AF0EE680AED
:1055F0000421784400F0D9FB53EC182B51EC100B2C
:10560000FAF74CFF53EC192BFAF7A1FE41EC100B03
:1056100051EC1B0B53EC102BFAF7B2FF41EC100BC3
:1056200053EC102B9DED0E0B51EC100BFAF736FFDF
:1056300053EC1A2BFAF72FFF9DED0E1B53EC112B99
:10564000FAF729FF53EC1C2BFAF725FF41EC100B5E
:10565000A9E79FED7D8B9FED7EBB9DED0E0B002995
:1056600053EC192B51EC100B52DAFAF770FE53EC95
:10567000182BFAF713FF41EC180B77480621B0EE10
:10568000480AF0EE680A784400F08FFB53EC182BC0
:1056900051EC100BFAF702FF41EC1D0B6F48B0EE16
:1056A000480AF0EE680A0421784400F07EFB53ECCF
:1056B000182B51EC100BFAF7F1FE53EC192BFAF7FB
:1056C00046FE41EC190B51EC180B01F007FC41ECC4
:1056D000180B53EC192B51EC1D0BFAF751FF53EC3F
:1056E000182BFAF7DBFE53EC1A2BFAF7D1FE41EC3C
:1056F000100B51EC180B53EC102BFAF728FE53EC5F
:105700001B2BFAF7CBFE53EC1C2BFAF7C4FE6DE013
:10571000FAF7C1FE53EC182BFAF7C0FE41EC180B58
:1057200001F0DCFB41EC1A0B00208DED00AB00908A
:105730009DED000B51EC1A0B53EC102BFAF707FE02
:105740009DED000B41EC1C0B53EC102B51EC100B9E
:10575000FAF7A4FE53EC182BFAF79DFE53EC1C2B22
:10576000FAF70EFF41EC1C0B3D48B0EE480AF0EE94
:10577000680A0621784400F018FB53EC182B51EC12
:10578000100BFAF78BFE41EC1D0B3648B0EE480AC1
:10579000F0EE680A0421784400F007FB53EC182B64
:1057A00051EC100BFAF77AFE53EC192BFAF7CFFDF8
:1057B00041EC100B51EC1D0B53EC102BFAF7E0FEF3
:1057C00053EC1A2BFAF76AFE53EC1C2BFAF7BFFDC9
:1057D00041EC100B53EC102B9DED000B51EC100B1A
:1057E000FAF7B5FD53EC1B2BFAF758FE41EC100B02
:1057F000D9E60000000000000000F03F00000000BB
:10580000182D4454FB2109400000F07F00000000E7
:1058100000000000000000000000E03F0000000069
:10582000000000000000F03F075C143326A6913C06
:105830000000603C00000000182D4454FB21F93F9B
:10584000CC2D0000DA2D0000000000000000E03F39
:105850000000000000000040162D0000242D000074
:10586000282C0000362C000070B59B482DED020B53
:105870002DED068B079D25F00044A04218DC9748CB
:10588000844202DC0AD1069840B19DED060BBDECC6
:10589000068B02B0BDE8704000F003BB002DCCBF0A
:1058A0009FED8F0B9FED900BBDEC068B02B070BD92
:1058B0008F48A04215DD8F48A042D8BF4FF0FF347B
:1058C00058DD9DED060B51EC100BFFF7EBFD0428A6
:1058D00008BF00F00DFB9DED060BBDEC068B02B082
:1058E00070BD9DED060B51EC100B00F013FCCDE9E3
:1058F000060181489FED828BA0423CDD8248A04298
:105900001FDD00249FED82AB9DED060B53EC1A2B9F
:1059100051EC100BFAF71BFD9DED060B41EC190B3A
:1059200053EC1A2B51EC100BFAF7B8FD53EC182B73
:10593000FAF7AEFD53EC192BFAF722FECDE906017A
:1059400049E09DED060B012453EC182B51EC100B94
:10595000FAF7FDFC9DED060B41EC190B53EC182BEF
:1059600051EC100BFAF794FD53EC192BFAF708FEE3
:10597000CDE906012FE06848A0421FDD02249FED1B
:10598000689B9DED060B53EC192B51EC100BFAF7AD
:1059900085FD53EC182BFAF7DAFC9DED060B41EC74
:1059A000180B53EC192B51EC100BFAF771FD53EC5B
:1059B000182BFAF7E5FDCDE906010CE09DED060B8D
:1059C000032453EC102B9FED580B51EC100BFAF7FE
:1059D000D7FDCDE906019DED060B53EC102B51ECE4
:1059E000100BFAF75BFD41EC180B53EC182BFAF790
:1059F00055FD41EC190B4E480621B0EE490AF0EE78
:105A0000690A784400F0D1F953EC182B51EC100BD3
:105A1000FAF744FD41EC180B4648B0EE490AF0EEA7
:105A2000690A0521784400F0C0F953EC192B51ECB8
:105A3000100BFAF733FD41EC100B51EC180B53EC43
:105A4000102B002C0EDAFAF782FC9DED061B53ECAE
:105A5000112BFAF723FD9DED061B53EC112BFAF7E2
:105A60001AFD35E0FAF773FC9DED061B53EC112B84
:105A7000FAF714FD41EC100B2F48784400EBC400FA
:105A800090ED001B51EC100B53EC112BFAF700FDBD
:105A90009DED061B53EC112BFAF7FAFC41EC100BB1
:105AA0002648784400EBC40090ED001B51EC100B2D
:105AB00053EC112BFAF7EFFC41EC100B002DA2BFB9
:105AC000BDEC068B02B070BD51EC100B81F00041B3
:105AD00041EC100B01E70000000010440000F07FD3
